{
  "transactions": [
    {
      "hash": "0x9fb071a1b6a1cbcfd6f183e7b91d54b00ff6d7efb78a091568d03a1ea09a94e9",
      "transactionType": "CALL",
      "contractName": null,
      "contractAddress": "0xbae069fa54d35f720b6acec64808e86e2160ab55",
      "function": "setAuthorizedMinter(address,bool)",
      "arguments": [
        "0x14B174a1a98f654da8F8ef3B20923A7B64Adb384",
        "true"
      ],
      "transaction": {
        "from": "0xfc10a013759f23142cca10a055ec0fa4a3ecd96a",
        "to": "0xbae069fa54d35f720b6acec64808e86e2160ab55",
        "gas": "0x10524",
        "value": "0x0",
        "input": "0xed58bad800000000000000000000000014b174a1a98f654da8f8ef3b20923a7b64adb3840000000000000000000000000000000000000000000000000000000000000001",
        "nonce": "0x54",
        "chainId": "0xa869"
      },
      "additionalContracts": [],
      "isFixedGasLimit": false
    },
    {
      "hash": "0xed28b052d6bff73c7e610ecb0351d0827f1904eee5e19e9497e15b1518a84698",
      "transactionType": "CALL",
      "contractName": null,
      "contractAddress": "0xf7c3607a848ff577412299f69fe8a0ca19874593",
      "function": "setAuthorizedUpdater(address,bool)",
      "arguments": [
        "0x14B174a1a98f654da8F8ef3B20923A7B64Adb384",
        "true"
      ],
      "transaction": {
        "from": "0xfc10a013759f23142cca10a055ec0fa4a3ecd96a",
        "to": "0xf7c3607a848ff577412299f69fe8a0ca19874593",
        "gas": "0x11482",
        "value": "0x0",
        "input": "0x99fc65d400000000000000000000000014b174a1a98f654da8f8ef3b20923a7b64adb3840000000000000000000000000000000000000000000000000000000000000001",
        "nonce": "0x55",
        "chainId": "0xa869"
      },
      "additionalContracts": [],
      "isFixedGasLimit": false
    },
    {
      "hash": "0x9eecabce69869dbae866f791698e1379435ad635cdd0a1dbda3af29fd362bb83",
      "transactionType": "CALL",
      "contractName": null,
      "contractAddress": "0x733c7d5fc45e60331156fc6188b9005e856704cb",
      "function": "setAuthorizedGame(address)",
      "arguments": [
        "0x14B174a1a98f654da8F8ef3B20923A7B64Adb384"
      ],
      "transaction": {
        "from": "0xfc10a013759f23142cca10a055ec0fa4a3ecd96a",
        "to": "0x733c7d5fc45e60331156fc6188b9005e856704cb",
        "gas": "0x1001d",
        "value": "0x0",
        "input": "0x1eb524b400000000000000000000000014b174a1a98f654da8f8ef3b20923a7b64adb384",
        "nonce": "0x56",
        "chainId": "0xa869"
      },
      "additionalContracts": [],
      "isFixedGasLimit": false
    },
    {
      "hash": "0xccb3dd800b1fcb63683bfa32bb2b71f7fcea463a904ea6c5122ea66e768d09c7",
      "transactionType": "CALL",
      "contractName": null,
      "contractAddress": "0xf4075a15a53bebe9cf402ad4b574e7e0affd483f",
      "function": "transferOwnership(address)",
      "arguments": [
        "0x14B174a1a98f654da8F8ef3B20923A7B64Adb384"
      ],
      "transaction": {
        "from": "0xfc10a013759f23142cca10a055ec0fa4a3ecd96a",
        "to": "0xf4075a15a53bebe9cf402ad4b574e7e0affd483f",
        "gas": "0x9cfa",
        "value": "0x0",
        "input": "0xf2fde38b00000000000000000000000014b174a1a98f654da8f8ef3b20923a7b64adb384",
        "nonce": "0x57",
        "chainId": "0xa869"
      },
      "additionalContracts": [],
      "isFixedGasLimit": false
    },
    {
      "hash": "0x31270e7cbdf2e16675bef4a06b5cd8edb32ec8a12d4bdad7bb22c76b9aa3031f",
      "transactionType": "CALL",
      "contractName": null,
      "contractAddress": "0xf7c3607a848ff577412299f69fe8a0ca19874593",
      "function": "transferOwnership(address)",
      "arguments": [
        "0x14B174a1a98f654da8F8ef3B20923A7B64Adb384"
      ],
      "transaction": {
        "from": "0xfc10a013759f23142cca10a055ec0fa4a3ecd96a",
        "to": "0xf7c3607a848ff577412299f69fe8a0ca19874593",
        "gas": "0x9cfa",
        "value": "0x0",
        "input": "0xf2fde38b00000000000000000000000014b174a1a98f654da8f8ef3b20923a7b64adb384",
        "nonce": "0x58",
        "chainId": "0xa869"
      },
      "additionalContracts": [],
      "isFixedGasLimit": false
    },
    {
      "hash": "0xaac36d057c4ad56e4eeb23ab7f47410a5db70ae151f07b1de9fbdae7d2a3beff",
      "transactionType": "CALL",
      "contractName": null,
      "contractAddress": "0xa099a27051f91cf061ff9421635ceb269b7e1654",
      "function": "transferOwnership(address)",
      "arguments": [
        "0x14B174a1a98f654da8F8ef3B20923A7B64Adb384"
      ],
      "transaction": {
        "from": "0xfc10a013759f23142cca10a055ec0fa4a3ecd96a",
        "to": "0xa099a27051f91cf061ff9421635ceb269b7e1654",
        "gas": "0xa5d2",
        "value": "0x0",
        "input": "0xf2fde38b00000000000000000000000014b174a1a98f654da8f8ef3b20923a7b64adb384",
        "nonce": "0x59",
        "chainId": "0xa869"
      },
      "additionalContracts": [],
      "isFixedGasLimit": false
    }
  ],
  "receipts": [
    {
      "status": "0x1",
      "cumulativeGasUsed": "0xbd10",
      "logs": [
        {
          "address": "0xbae069fa54d35f720b6acec64808e86e2160ab55",
          "topics": [
            "0x9041c22ed79d1c19c69cc22fd9e38c93da4f2dd8cd32580594e232a8a18541cb",
            "0x00000000000000000000000014b174a1a98f654da8f8ef3b20923a7b64adb384"
          ],
          "data": "0x0000000000000000000000000000000000000000000000000000000000000001",
          "blockHash": "0xac36afa1b6f05e773dbd3c8237f9984ccd3acb8fead4d0b0373a798bfec92012",
          "blockNumber": "0x3370b51",
          "transactionHash": "0x9eecabce69869dbae866f791698e1379435ad635cdd0a1dbda3af29fd362bb83",
          "transactionIndex": "0x0",
          "logIndex": "0x0",
          "removed": false
        }
      ],
      "logsBloom": "0x00000000000000000000000000000200000000000000000000000000000000000000001000000000000000000000000000000000000000000000000000000800000000000000000000010000000000000000000000000000800000000000000000040000000000000000000000000000000000000000000000000000000000000000000000000000000000000000000000000000000000000000000000000000000000000000000000000000000000000000000000000000000000000000000000000000000000000000000008000000000000000000000000000000000000000000000080000000000000000000000000000000000004000000000000000000",
      "type": "0x2",
      "transactionHash": "0x9eecabce69869dbae866f791698e1379435ad635cdd0a1dbda3af29fd362bb83",
      "transactionIndex": "0x0",
      "blockHash": "0xac36afa1b6f05e773dbd3c8237f9984ccd3acb8fead4d0b0373a798bfec92012",
      "blockNumber": "0x3370b51",
      "gasUsed": "0xbd10",
      "effectiveGasPrice": "0x2",
      "from": "0xfc10a013759f23142cca10a055ec0fa4a3ecd96a",
      "to": "0xbae069fa54d35f720b6acec64808e86e2160ab55",
      "contractAddress": null
    },
    {
      "status": "0x1",
      "cumulativeGasUsed": "0x17a21",
      "logs": [
        {
          "address": "0xf7c3607a848ff577412299f69fe8a0ca19874593",
          "topics": [
            "0x5c001b1d70af3e0a09eed53bc0588d57fec6d23196319ba29c6313eb3321273c",
            "0x00000000000000000000000014b174a1a98f654da8f8ef3b20923a7b64adb384"
          ],
          "data": "0x0000000000000000000000000000000000000000000000000000000000000001",
          "blockHash": "0xac36afa1b6f05e773dbd3c8237f9984ccd3acb8fead4d0b0373a798bfec92012",
          "blockNumber": "0x3370b51",
          "transactionHash": "0xed28b052d6bff73c7e610ecb0351d0827f1904eee5e19e9497e15b1518a84698",
          "transactionIndex": "0x1",
          "logIndex": "0x1",
          "removed": false
        }
      ],
      "logsBloom": "0x00000000000000000000000000000200000000000000000000000000000000000000000000000000000400000000000000000000000000000000000000000800000000000000000000010000000000000000000000000000000000000000000000000000000000000000000008000000000000000000000000000000000000000000000000000000000000000000000000000000000000800000000000000000000020000000000000000000000000000000000000000000000000000000001000000000000000000000000000000000000000000000000000000000000000000000000000001000000000000000000000000000000000000000000000000000",
      "type": "0x2",
      "transactionHash": "0xed28b052d6bff73c7e610ecb0351d0827f1904eee5e19e9497e15b1518a84698",
      "transactionIndex": "0x1",
      "blockHash": "0xac36afa1b6f05e773dbd3c8237f9984ccd3acb8fead4d0b0373a798bfec92012",
      "blockNumber": "0x3370b51",
      "gasUsed": "0xbd11",
      "effectiveGasPrice": "0x2",
      "from": "0xfc10a013759f23142cca10a055ec0fa4a3ecd96a",
      "to": "0xf7c3607a848ff577412299f69fe8a0ca19874593",
      "contractAddress": null
    },
    {
      "status": "0x1",
      "cumulativeGasUsed": "0x2338e",
      "logs": [
        {
          "address": "0x733c7d5fc45e60331156fc6188b9005e856704cb",
          "topics": [
            "0x3b83c4bd151eaa24f6da33c69e8670e6371ed555bcaf6d7a2fe533b03ed1cb9e",
            "0x00000000000000000000000014b174a1a98f654da8f8ef3b20923a7b64adb384"
          ],
          "data": "0x",
          "blockHash": "0xac36afa1b6f05e773dbd3c8237f9984ccd3acb8fead4d0b0373a798bfec92012",
          "blockNumber": "0x3370b51",
          "transactionHash": "0x31270e7cbdf2e16675bef4a06b5cd8edb32ec8a12d4bdad7bb22c76b9aa3031f",
          "transactionIndex": "0x2",
          "logIndex": "0x2",
          "removed": false
        }
      ],
      "logsBloom": "0x00000000000000000000000000000200000000000000000000000000000000000000000000000000000000010000001000000000000000000000000000000800000000000000000000010000000000000000000000000000000000000000000000000000000000000800000000000000000000000000000000000000000000400000000000000000000000000000000000000000100000000000000000000000000000000000000000000000000000000000000000000000000000000000000000000000000000000000000000000000000000000000000000000000000000000000000000000004000000000000000000000000000000000000000000000000",
      "type": "0x2",
      "transactionHash": "0x31270e7cbdf2e16675bef4a06b5cd8edb32ec8a12d4bdad7bb22c76b9aa3031f",
      "transactionIndex": "0x2",
      "blockHash": "0xac36afa1b6f05e773dbd3c8237f9984ccd3acb8fead4d0b0373a798bfec92012",
      "blockNumber": "0x3370b51",
      "gasUsed": "0xb96d",
      "effectiveGasPrice": "0x2",
      "from": "0xfc10a013759f23142cca10a055ec0fa4a3ecd96a",
      "to": "0x733c7d5fc45e60331156fc6188b9005e856704cb",
      "contractAddress": null
    },
    {
      "status": "0x1",
      "cumulativeGasUsed": "0x2a535",
      "logs": [
        {
          "address": "0xf4075a15a53bebe9cf402ad4b574e7e0affd483f",
          "topics": [
            "0x8be0079c531659141344cd1fd0a4f28419497f9722a3daafe3b4186f6b6457e0",
            "0x000000000000000000000000fc10a013759f23142cca10a055ec0fa4a3ecd96a",
            "0x00000000000000000000000014b174a1a98f654da8f8ef3b20923a7b64adb384"
          ],
          "data": "0x",
          "blockHash": "0xac36afa1b6f05e773dbd3c8237f9984ccd3acb8fead4d0b0373a798bfec92012",
          "blockNumber": "0x3370b51",
          "transactionHash": "0xccb3dd800b1fcb63683bfa32bb2b71f7fcea463a904ea6c5122ea66e768d09c7",
          "transactionIndex": "0x3",
          "logIndex": "0x3",
          "removed": false
        }
      ],
      "logsBloom": "0x00000000000000000000000000000200000000000000000000800000000000000000000000000000000000000000000000000000000000000000000000000800000000000000000000010000000000000001000000000000000000001000000000000000000000000000000000000000000000000000000000000000000000400000000000000000000000000000000000000000000000000000000000000000000000000000000000000000200000000000000000000000000000000000000000000000000000000000000000000020000080000000000000000000000000000400000000000000000000000000000000000000000000000000000000000000",
      "type": "0x2",
      "transactionHash": "0xccb3dd800b1fcb63683bfa32bb2b71f7fcea463a904ea6c5122ea66e768d09c7",
      "transactionIndex": "0x3",
      "blockHash": "0xac36afa1b6f05e773dbd3c8237f9984ccd3acb8fead4d0b0373a798bfec92012",
      "blockNumber": "0x3370b51",
      "gasUsed": "0x71a7",
      "effectiveGasPrice": "0x2",
      "from": "0xfc10a013759f23142cca10a055ec0fa4a3ecd96a",
      "to": "0xf4075a15a53bebe9cf402ad4b574e7e0affd483f",
      "contractAddress": null
    },
    {
      "status": "0x1",
      "cumulativeGasUsed": "0x316dc",
      "logs": [
        {
          "address": "0xf7c3607a848ff577412299f69fe8a0ca19874593",
          "topics": [
            "0x8be0079c531659141344cd1fd0a4f28419497f9722a3daafe3b4186f6b6457e0",
            "0x000000000000000000000000fc10a013759f23142cca10a055ec0fa4a3ecd96a",
            "0x00000000000000000000000014b174a1a98f654da8f8ef3b20923a7b64adb384"
          ],
          "data": "0x",
          "blockHash": "0xac36afa1b6f05e773dbd3c8237f9984ccd3acb8fead4d0b0373a798bfec92012",
          "blockNumber": "0x3370b51",
          "transactionHash": "0xaac36d057c4ad56e4eeb23ab7f47410a5db70ae151f07b1de9fbdae7d2a3beff",
          "transactionIndex": "0x4",
          "logIndex": "0x4",
          "removed": false
        }
      ],
      "logsBloom": "0x00000000000000000000000000000200000000000000000000800000000000000000000000000000000000000000000000000000000000000000000000000800000000000000000000010000000000000001000000000000000000001000000000000000000000000000000008000000000000000000000000000000000000400000000000000000000000000000000000000000000000800000000000000000000020000000000000000000000000000000000000000000000000000000000000000000000000000000000000000000000080000000000000000000000000000000000000000000000000000000000000000000000000000000000000000000",
      "type": "0x2",
      "transactionHash": "0xaac36d057c4ad56e4eeb23ab7f47410a5db70ae151f07b1de9fbdae7d2a3beff",
      "transactionIndex": "0x4",
      "blockHash": "0xac36afa1b6f05e773dbd3c8237f9984ccd3acb8fead4d0b0373a798bfec92012",
      "blockNumber": "0x3370b51",
      "gasUsed": "0x71a7",
      "effectiveGasPrice": "0x2",
      "from": "0xfc10a013759f23142cca10a055ec0fa4a3ecd96a",
      "to": "0xf7c3607a848ff577412299f69fe8a0ca19874593",
      "contractAddress": null
    },
    {
      "status": "0x1",
      "cumulativeGasUsed": "0x3883e",
      "logs": [
        {
          "address": "0xa099a27051f91cf061ff9421635ceb269b7e1654",
          "topics": [
            "0x8be0079c531659141344cd1fd0a4f28419497f9722a3daafe3b4186f6b6457e0",
            "0x000000000000000000000000fc10a013759f23142cca10a055ec0fa4a3ecd96a",
            "0x00000000000000000000000014b174a1a98f654da8f8ef3b20923a7b64adb384"
          ],
          "data": "0x",
          "blockHash": "0xac36afa1b6f05e773dbd3c8237f9984ccd3acb8fead4d0b0373a798bfec92012",
          "blockNumber": "0x3370b51",
          "transactionHash": "0x9fb071a1b6a1cbcfd6f183e7b91d54b00ff6d7efb78a091568d03a1ea09a94e9",
          "transactionIndex": "0x5",
          "logIndex": "0x5",
          "removed": false
        }
      ],
      "logsBloom": "0x00000000000000000000000000000200000000000000000000800000000000000000000000000000000000000000000000000000000000000000000000000800000000000000000000010000000000000001000000000000000000001000000000100000000000000000000000000000000000000000000000000000000000400000000000000000000000000000000000000000000000000000000000000000000000000000000000000000000000000000000000000000000000000000000000000000000000000000000004000000000080000000000000000000000000000000000000000000000000000000000000000000000000000000000000000040",
      "type": "0x2",
      "transactionHash": "0x9fb071a1b6a1cbcfd6f183e7b91d54b00ff6d7efb78a091568d03a1ea09a94e9",
      "transactionIndex": "0x5",
      "blockHash": "0xac36afa1b6f05e773dbd3c8237f9984ccd3acb8fead4d0b0373a798bfec92012",
      "blockNumber": "0x3370b51",
      "gasUsed": "0x7162",
      "effectiveGasPrice": "0x2",
      "from": "0xfc10a013759f23142cca10a055ec0fa4a3ecd96a",
      "to": "0xa099a27051f91cf061ff9421635ceb269b7e1654",
      "contractAddress": null
    }
  ],
  "libraries": [],
  "pending": [],
  "returns": {},
  "timestamp": 1775875753767,
  "chain": 43113,
  "commit": "75c5329c"
}