{
  "transactions": [
    {
      "hash": "0x33f76d8517585881507c0cdeabe2d783a06697a56532398bb9a1e4d04424d7f7",
      "transactionType": "CALL",
      "contractName": null,
      "contractAddress": "0xbae069fa54d35f720b6acec64808e86e2160ab55",
      "function": "transferOwnership(address)",
      "arguments": [
        "0x14B174a1a98f654da8F8ef3B20923A7B64Adb384"
      ],
      "transaction": {
        "from": "0xfc10a013759f23142cca10a055ec0fa4a3ecd96a",
        "to": "0xbae069fa54d35f720b6acec64808e86e2160ab55",
        "gas": "0x9cfa",
        "value": "0x0",
        "input": "0xf2fde38b00000000000000000000000014b174a1a98f654da8f8ef3b20923a7b64adb384",
        "nonce": "0x63",
        "chainId": "0xa869"
      },
      "additionalContracts": [],
      "isFixedGasLimit": false
    }
  ],
  "receipts": [
    {
      "status": "0x1",
      "cumulativeGasUsed": "0x71a7",
      "logs": [
        {
          "address": "0xbae069fa54d35f720b6acec64808e86e2160ab55",
          "topics": [
            "0x8be0079c531659141344cd1fd0a4f28419497f9722a3daafe3b4186f6b6457e0",
            "0x000000000000000000000000fc10a013759f23142cca10a055ec0fa4a3ecd96a",
            "0x00000000000000000000000014b174a1a98f654da8f8ef3b20923a7b64adb384"
          ],
          "data": "0x",
          "blockHash": "0x0c165c513449b57ed3254d845dc333f251f915acce9a2cfda7e8aeeb9c862b50",
          "blockNumber": "0x3370db5",
          "transactionHash": "0x33f76d8517585881507c0cdeabe2d783a06697a56532398bb9a1e4d04424d7f7",
          "transactionIndex": "0x0",
          "logIndex": "0x0",
          "removed": false
        }
      ],
      "logsBloom": "0x00000000000000000000000000000200000000000000000000800000000000000000001000000000000000000000000000000000000000000000000000000800000000000000000000010000000000000001000000000000800000001000000000000000000000000000000000000000000000000000000000000000000000400000000000000000000000000000000000000000000000000000000000000000000000000000000000000000000000000000000000000000000000000000000000000000000000000000000008000000000080000000000000000000000000000000000000000000000000000000000000000000000000000000000000000000",
      "type": "0x2",
      "transactionHash": "0x33f76d8517585881507c0cdeabe2d783a06697a56532398bb9a1e4d04424d7f7",
      "transactionIndex": "0x0",
      "blockHash": "0x0c165c513449b57ed3254d845dc333f251f915acce9a2cfda7e8aeeb9c862b50",
      "blockNumber": "0x3370db5",
      "gasUsed": "0x71a7",
      "effectiveGasPrice": "0x2",
      "from": "0xfc10a013759f23142cca10a055ec0fa4a3ecd96a",
      "to": "0xbae069fa54d35f720b6acec64808e86e2160ab55",
      "contractAddress": null
    }
  ],
  "libraries": [],
  "pending": [],
  "returns": {},
  "timestamp": 1775876681747,
  "chain": 43113,
  "commit": "75c5329c"
}