{
  "transactions": [
    {
      "hash": "0x81565e4226e71b8bc5823fe421ce666fb93739f3eea2eb8e062482fd9892ffdf",
      "transactionType": "CALL",
      "contractName": null,
      "contractAddress": "0xa7e60c7ea3d0856c5412e0afb3ec0a3da7037a29",
      "function": "setAuthorizedMinter(address,bool)",
      "arguments": [
        "0x5924AF67Ac10c9c1b62C5D6C953b1d1322F27972",
        "true"
      ],
      "transaction": {
        "from": "0xfc10a013759f23142cca10a055ec0fa4a3ecd96a",
        "to": "0xa7e60c7ea3d0856c5412e0afb3ec0a3da7037a29",
        "gas": "0x10524",
        "value": "0x0",
        "input": "0xed58bad80000000000000000000000005924af67ac10c9c1b62c5d6c953b1d1322f279720000000000000000000000000000000000000000000000000000000000000001",
        "nonce": "0x3c",
        "chainId": "0xa869"
      },
      "additionalContracts": [],
      "isFixedGasLimit": false
    },
    {
      "hash": "0x474abb1bd831f73612db15c30cc5309a6d03f055cecc494052182d40f3edbeb5",
      "transactionType": "CALL",
      "contractName": null,
      "contractAddress": "0xc1fe7b2daefee761476ad08ea52c9500f0c08658",
      "function": "setAuthorizedUpdater(address,bool)",
      "arguments": [
        "0x5924AF67Ac10c9c1b62C5D6C953b1d1322F27972",
        "true"
      ],
      "transaction": {
        "from": "0xfc10a013759f23142cca10a055ec0fa4a3ecd96a",
        "to": "0xc1fe7b2daefee761476ad08ea52c9500f0c08658",
        "gas": "0x11482",
        "value": "0x0",
        "input": "0x99fc65d40000000000000000000000005924af67ac10c9c1b62c5d6c953b1d1322f279720000000000000000000000000000000000000000000000000000000000000001",
        "nonce": "0x3d",
        "chainId": "0xa869"
      },
      "additionalContracts": [],
      "isFixedGasLimit": false
    },
    {
      "hash": "0x019e1ef72aae542e2828658fc4b332bf5369c268f4e9ece737c82352c41a02cf",
      "transactionType": "CALL",
      "contractName": null,
      "contractAddress": "0x687566b80b0e660af0f1d322d4250be31bf3a300",
      "function": "setAuthorizedGame(address)",
      "arguments": [
        "0x5924AF67Ac10c9c1b62C5D6C953b1d1322F27972"
      ],
      "transaction": {
        "from": "0xfc10a013759f23142cca10a055ec0fa4a3ecd96a",
        "to": "0x687566b80b0e660af0f1d322d4250be31bf3a300",
        "gas": "0x1001d",
        "value": "0x0",
        "input": "0x1eb524b40000000000000000000000005924af67ac10c9c1b62c5d6c953b1d1322f27972",
        "nonce": "0x3e",
        "chainId": "0xa869"
      },
      "additionalContracts": [],
      "isFixedGasLimit": false
    },
    {
      "hash": "0xe78b3357dd7603355926fb3120e751aa87f1830309b95d9e57b00ea8f1b037c9",
      "transactionType": "CALL",
      "contractName": null,
      "contractAddress": "0x43250c1a36284a99d172c427025d80a0a2ccfa39",
      "function": "transferOwnership(address)",
      "arguments": [
        "0x5924AF67Ac10c9c1b62C5D6C953b1d1322F27972"
      ],
      "transaction": {
        "from": "0xfc10a013759f23142cca10a055ec0fa4a3ecd96a",
        "to": "0x43250c1a36284a99d172c427025d80a0a2ccfa39",
        "gas": "0x9cfa",
        "value": "0x0",
        "input": "0xf2fde38b0000000000000000000000005924af67ac10c9c1b62c5d6c953b1d1322f27972",
        "nonce": "0x3f",
        "chainId": "0xa869"
      },
      "additionalContracts": [],
      "isFixedGasLimit": false
    },
    {
      "hash": "0xf55eeac42d8649a8c77db1de7d8ff240d6ebc73a6a8114f5f0dc24de4dd8b193",
      "transactionType": "CALL",
      "contractName": null,
      "contractAddress": "0xc1fe7b2daefee761476ad08ea52c9500f0c08658",
      "function": "transferOwnership(address)",
      "arguments": [
        "0x5924AF67Ac10c9c1b62C5D6C953b1d1322F27972"
      ],
      "transaction": {
        "from": "0xfc10a013759f23142cca10a055ec0fa4a3ecd96a",
        "to": "0xc1fe7b2daefee761476ad08ea52c9500f0c08658",
        "gas": "0x9cfa",
        "value": "0x0",
        "input": "0xf2fde38b0000000000000000000000005924af67ac10c9c1b62c5d6c953b1d1322f27972",
        "nonce": "0x40",
        "chainId": "0xa869"
      },
      "additionalContracts": [],
      "isFixedGasLimit": false
    },
    {
      "hash": "0x11da9e79bec40f0f0e638876a2db46d8518417db279818f62a3f1a5cf04060a7",
      "transactionType": "CALL",
      "contractName": null,
      "contractAddress": "0x3d31b774127deb23cb35c6640c54d0b65d22b8f1",
      "function": "transferOwnership(address)",
      "arguments": [
        "0x5924AF67Ac10c9c1b62C5D6C953b1d1322F27972"
      ],
      "transaction": {
        "from": "0xfc10a013759f23142cca10a055ec0fa4a3ecd96a",
        "to": "0x3d31b774127deb23cb35c6640c54d0b65d22b8f1",
        "gas": "0xa5d2",
        "value": "0x0",
        "input": "0xf2fde38b0000000000000000000000005924af67ac10c9c1b62c5d6c953b1d1322f27972",
        "nonce": "0x41",
        "chainId": "0xa869"
      },
      "additionalContracts": [],
      "isFixedGasLimit": false
    }
  ],
  "receipts": [
    {
      "status": "0x1",
      "cumulativeGasUsed": "0xbd10",
      "logs": [
        {
          "address": "0xa7e60c7ea3d0856c5412e0afb3ec0a3da7037a29",
          "topics": [
            "0x9041c22ed79d1c19c69cc22fd9e38c93da4f2dd8cd32580594e232a8a18541cb",
            "0x0000000000000000000000005924af67ac10c9c1b62c5d6c953b1d1322f27972"
          ],
          "data": "0x0000000000000000000000000000000000000000000000000000000000000001",
          "blockHash": "0xc849068bb1401c1d4c8d7d3a846b272a7de6662607754126d7b64fde1f2588d5",
          "blockNumber": "0x336747c",
          "transactionHash": "0xe78b3357dd7603355926fb3120e751aa87f1830309b95d9e57b00ea8f1b037c9",
          "transactionIndex": "0x0",
          "logIndex": "0x0",
          "removed": false
        }
      ],
      "logsBloom": "0x00000000000000000040000000000000000000000000000000000000000000000000000000000000000000000900000000000000000000000000000000000000000000000000000000000000000000000000000000000000000000000000000000040000000000000000000000000000000000000000000000000000000000000000000000000000000000000000000000000000000000100100000000000000000000000000000000000000000000000000000000000000000000000000000000000000000000000000000000000000000000000000000000000000000000000000000080000000000000000000000000000000000004000400000000000000",
      "type": "0x2",
      "transactionHash": "0xe78b3357dd7603355926fb3120e751aa87f1830309b95d9e57b00ea8f1b037c9",
      "transactionIndex": "0x0",
      "blockHash": "0xc849068bb1401c1d4c8d7d3a846b272a7de6662607754126d7b64fde1f2588d5",
      "blockNumber": "0x336747c",
      "gasUsed": "0xbd10",
      "effectiveGasPrice": "0x2",
      "from": "0xfc10a013759f23142cca10a055ec0fa4a3ecd96a",
      "to": "0xa7e60c7ea3d0856c5412e0afb3ec0a3da7037a29",
      "contractAddress": null
    },
    {
      "status": "0x1",
      "cumulativeGasUsed": "0x17a21",
      "logs": [
        {
          "address": "0xc1fe7b2daefee761476ad08ea52c9500f0c08658",
          "topics": [
            "0x5c001b1d70af3e0a09eed53bc0588d57fec6d23196319ba29c6313eb3321273c",
            "0x0000000000000000000000005924af67ac10c9c1b62c5d6c953b1d1322f27972"
          ],
          "data": "0x0000000000000000000000000000000000000000000000000000000000000001",
          "blockHash": "0xc849068bb1401c1d4c8d7d3a846b272a7de6662607754126d7b64fde1f2588d5",
          "blockNumber": "0x336747c",
          "transactionHash": "0x11da9e79bec40f0f0e638876a2db46d8518417db279818f62a3f1a5cf04060a7",
          "transactionIndex": "0x1",
          "logIndex": "0x1",
          "removed": false
        }
      ],
      "logsBloom": "0x00000000000000000040000000000000000000000000000000000000000000000000000000000000200400000000000000000000000000000000000000000000000000000002000000000000000000000000000000000000000000000000000000000000000000000000000000000000000000000000000000000000000000000000000000000000000000000000000000000000000000100100000000000000000000000000000000000000000000000000000000000000000000000000001000000000000000000000000000000000000000000000000000000000000000000000000000001100000000000000000000000000000000000000000000000000",
      "type": "0x2",
      "transactionHash": "0x11da9e79bec40f0f0e638876a2db46d8518417db279818f62a3f1a5cf04060a7",
      "transactionIndex": "0x1",
      "blockHash": "0xc849068bb1401c1d4c8d7d3a846b272a7de6662607754126d7b64fde1f2588d5",
      "blockNumber": "0x336747c",
      "gasUsed": "0xbd11",
      "effectiveGasPrice": "0x2",
      "from": "0xfc10a013759f23142cca10a055ec0fa4a3ecd96a",
      "to": "0xc1fe7b2daefee761476ad08ea52c9500f0c08658",
      "contractAddress": null
    },
    {
      "status": "0x1",
      "cumulativeGasUsed": "0x2338e",
      "logs": [
        {
          "address": "0x687566b80b0e660af0f1d322d4250be31bf3a300",
          "topics": [
            "0x3b83c4bd151eaa24f6da33c69e8670e6371ed555bcaf6d7a2fe533b03ed1cb9e",
            "0x0000000000000000000000005924af67ac10c9c1b62c5d6c953b1d1322f27972"
          ],
          "data": "0x",
          "blockHash": "0xc849068bb1401c1d4c8d7d3a846b272a7de6662607754126d7b64fde1f2588d5",
          "blockNumber": "0x336747c",
          "transactionHash": "0xf55eeac42d8649a8c77db1de7d8ff240d6ebc73a6a8114f5f0dc24de4dd8b193",
          "transactionIndex": "0x2",
          "logIndex": "0x2",
          "removed": false
        }
      ],
      "logsBloom": "0x00000000000000000060000000000000000000000000000000000000000000000000000000000000000000010000000000000000000000000000000000000000000000000000000000000000000000000000000000000000000000000000000000000000000000000000008000000000004000000000000000000000000000000000000000000000000000000000000000000000100000100100000000000000000000000000000000000000000000000000000000000000000000000000000000000000000000000000000000000000000000000000000000000000000000000000000000000004000000000000000000000000000000000000000000000000",
      "type": "0x2",
      "transactionHash": "0xf55eeac42d8649a8c77db1de7d8ff240d6ebc73a6a8114f5f0dc24de4dd8b193",
      "transactionIndex": "0x2",
      "blockHash": "0xc849068bb1401c1d4c8d7d3a846b272a7de6662607754126d7b64fde1f2588d5",
      "blockNumber": "0x336747c",
      "gasUsed": "0xb96d",
      "effectiveGasPrice": "0x2",
      "from": "0xfc10a013759f23142cca10a055ec0fa4a3ecd96a",
      "to": "0x687566b80b0e660af0f1d322d4250be31bf3a300",
      "contractAddress": null
    },
    {
      "status": "0x1",
      "cumulativeGasUsed": "0x2a535",
      "logs": [
        {
          "address": "0x43250c1a36284a99d172c427025d80a0a2ccfa39",
          "topics": [
            "0x8be0079c531659141344cd1fd0a4f28419497f9722a3daafe3b4186f6b6457e0",
            "0x000000000000000000000000fc10a013759f23142cca10a055ec0fa4a3ecd96a",
            "0x0000000000000000000000005924af67ac10c9c1b62c5d6c953b1d1322f27972"
          ],
          "data": "0x",
          "blockHash": "0xc849068bb1401c1d4c8d7d3a846b272a7de6662607754126d7b64fde1f2588d5",
          "blockNumber": "0x336747c",
          "transactionHash": "0x019e1ef72aae542e2828658fc4b332bf5369c268f4e9ece737c82352c41a02cf",
          "transactionIndex": "0x3",
          "logIndex": "0x3",
          "removed": false
        }
      ],
      "logsBloom": "0x00000000000000000040000000000000000000000000000000800000000000000000000000000000000000000000000000000000000800000000000000000000000000000000000800000000000000000001000000000000000000001000000000000000000000000000000000000000000000000000000000000000000000400000000000000000000000000000000000000000000000100100000000000000000000000000000000000000000000000000000000000000000000000000000000000000000000000000000100000000000080000000000000000000000000000000000000000000000000000000000000000000000000000000000000000000",
      "type": "0x2",
      "transactionHash": "0x019e1ef72aae542e2828658fc4b332bf5369c268f4e9ece737c82352c41a02cf",
      "transactionIndex": "0x3",
      "blockHash": "0xc849068bb1401c1d4c8d7d3a846b272a7de6662607754126d7b64fde1f2588d5",
      "blockNumber": "0x336747c",
      "gasUsed": "0x71a7",
      "effectiveGasPrice": "0x2",
      "from": "0xfc10a013759f23142cca10a055ec0fa4a3ecd96a",
      "to": "0x43250c1a36284a99d172c427025d80a0a2ccfa39",
      "contractAddress": null
    },
    {
      "status": "0x1",
      "cumulativeGasUsed": "0x316dc",
      "logs": [
        {
          "address": "0xc1fe7b2daefee761476ad08ea52c9500f0c08658",
          "topics": [
            "0x8be0079c531659141344cd1fd0a4f28419497f9722a3daafe3b4186f6b6457e0",
            "0x000000000000000000000000fc10a013759f23142cca10a055ec0fa4a3ecd96a",
            "0x0000000000000000000000005924af67ac10c9c1b62c5d6c953b1d1322f27972"
          ],
          "data": "0x",
          "blockHash": "0xc849068bb1401c1d4c8d7d3a846b272a7de6662607754126d7b64fde1f2588d5",
          "blockNumber": "0x336747c",
          "transactionHash": "0x474abb1bd831f73612db15c30cc5309a6d03f055cecc494052182d40f3edbeb5",
          "transactionIndex": "0x4",
          "logIndex": "0x4",
          "removed": false
        }
      ],
      "logsBloom": "0x00000000000000000040000000000000000000000000000000800000000000000000000000000000200000000000000000000000000000000000000000000000000000000002000000000000000000000001000000000000000000001000000000000000000000000000000000000000000000000000000000000000000000400000000000000000000000000000000000000000000000100100000000000000000000000000000000000000000000000000000000000000000000000000000000000000000000000000000000000000000080000000000000000000000000000000000000000100000000000000000000000000000000000000000000000000",
      "type": "0x2",
      "transactionHash": "0x474abb1bd831f73612db15c30cc5309a6d03f055cecc494052182d40f3edbeb5",
      "transactionIndex": "0x4",
      "blockHash": "0xc849068bb1401c1d4c8d7d3a846b272a7de6662607754126d7b64fde1f2588d5",
      "blockNumber": "0x336747c",
      "gasUsed": "0x71a7",
      "effectiveGasPrice": "0x2",
      "from": "0xfc10a013759f23142cca10a055ec0fa4a3ecd96a",
      "to": "0xc1fe7b2daefee761476ad08ea52c9500f0c08658",
      "contractAddress": null
    },
    {
      "status": "0x1",
      "cumulativeGasUsed": "0x3883e",
      "logs": [
        {
          "address": "0x3d31b774127deb23cb35c6640c54d0b65d22b8f1",
          "topics": [
            "0x8be0079c531659141344cd1fd0a4f28419497f9722a3daafe3b4186f6b6457e0",
            "0x000000000000000000000000fc10a013759f23142cca10a055ec0fa4a3ecd96a",
            "0x0000000000000000000000005924af67ac10c9c1b62c5d6c953b1d1322f27972"
          ],
          "data": "0x",
          "blockHash": "0xc849068bb1401c1d4c8d7d3a846b272a7de6662607754126d7b64fde1f2588d5",
          "blockNumber": "0x336747c",
          "transactionHash": "0x81565e4226e71b8bc5823fe421ce666fb93739f3eea2eb8e062482fd9892ffdf",
          "transactionIndex": "0x5",
          "logIndex": "0x5",
          "removed": false
        }
      ],
      "logsBloom": "0x00000000000000000040000000000000000000000000004000800000000000000000000000000000000000000000000000000000000000000000000000000000000000000000000000000000000000000001000000000000000000001000000000000000000000000000000000400000000000000000000000000000000000400000000000000000000000000000000000000000000000100100000000000000000000000000000000000000000000000000000000000000000000000000000000000000000000000000000000000000000080000000000000000000002000000000000000000000000000000000000000000000000000000000000000000000",
      "type": "0x2",
      "transactionHash": "0x81565e4226e71b8bc5823fe421ce666fb93739f3eea2eb8e062482fd9892ffdf",
      "transactionIndex": "0x5",
      "blockHash": "0xc849068bb1401c1d4c8d7d3a846b272a7de6662607754126d7b64fde1f2588d5",
      "blockNumber": "0x336747c",
      "gasUsed": "0x7162",
      "effectiveGasPrice": "0x2",
      "from": "0xfc10a013759f23142cca10a055ec0fa4a3ecd96a",
      "to": "0x3d31b774127deb23cb35c6640c54d0b65d22b8f1",
      "contractAddress": null
    }
  ],
  "libraries": [],
  "pending": [],
  "returns": {},
  "timestamp": 1775814401437,
  "chain": 43113,
  "commit": "75c5329c"
}