{
  "transactions": [
    {
      "hash": "0xc2add285e1268edac9ce9d3f0bb8e263e7812a385b7c001d41b7cf06eb1cbddf",
      "transactionType": "CALL",
      "contractName": null,
      "contractAddress": "0x14b174a1a98f654da8f8ef3b20923a7b64adb384",
      "function": "registerAgent(address,string,string)",
      "arguments": [
        "0xaAaAaAaaAaAaAaaAaAAAAAAAAaaaAaAaAaaAaaAa",
        "AI Agent",
        "ipfs://ai-agent"
      ],
      "transaction": {
        "from": "0xfc10a013759f23142cca10a055ec0fa4a3ecd96a",
        "to": "0x14b174a1a98f654da8f8ef3b20923a7b64adb384",
        "gas": "0x744a9",
        "value": "0x0",
        "input": "0x7216fe48000000000000000000000000aaaaaaaaaaaaaaaaaaaaaaaaaaaaaaaaaaaaaaaa000000000000000000000000000000000000000000000000000000000000006000000000000000000000000000000000000000000000000000000000000000a000000000000000000000000000000000000000000000000000000000000000084149204167656e74000000000000000000000000000000000000000000000000000000000000000000000000000000000000000000000000000000000000000f697066733a2f2f61692d6167656e740000000000000000000000000000000000",
        "nonce": "0x5d",
        "chainId": "0xa869"
      },
      "additionalContracts": [],
      "isFixedGasLimit": false
    },
    {
      "hash": "0x1cfc9f5593ee117331b7f7b03890dc54d7c2c4a946212df43bf513f347b579c0",
      "transactionType": "CALL",
      "contractName": null,
      "contractAddress": "0x14b174a1a98f654da8f8ef3b20923a7b64adb384",
      "function": "registerAgent(address,string,string)",
      "arguments": [
        "0xbBbBBBBbbBBBbbbBbbBbbbbBBbBbbbbBbBbbBBbB",
        "Online Player",
        "ipfs://online-player"
      ],
      "transaction": {
        "from": "0xfc10a013759f23142cca10a055ec0fa4a3ecd96a",
        "to": "0x14b174a1a98f654da8f8ef3b20923a7b64adb384",
        "gas": "0x7454e",
        "value": "0x0",
        "input": "0x7216fe48000000000000000000000000bbbbbbbbbbbbbbbbbbbbbbbbbbbbbbbbbbbbbbbb000000000000000000000000000000000000000000000000000000000000006000000000000000000000000000000000000000000000000000000000000000a0000000000000000000000000000000000000000000000000000000000000000d4f6e6c696e6520506c61796572000000000000000000000000000000000000000000000000000000000000000000000000000000000000000000000000000014697066733a2f2f6f6e6c696e652d706c61796572000000000000000000000000",
        "nonce": "0x5e",
        "chainId": "0xa869"
      },
      "additionalContracts": [],
      "isFixedGasLimit": false
    }
  ],
  "receipts": [
    {
      "status": "0x1",
      "cumulativeGasUsed": "0x54316",
      "logs": [
        {
          "address": "0xf4075a15a53bebe9cf402ad4b574e7e0affd483f",
          "topics": [
            "0xddf252ad1be2c89b69c2b068fc378daa952ba7f163c4a11628f55a4df523b3ef",
            "0x0000000000000000000000000000000000000000000000000000000000000000",
            "0x000000000000000000000000aaaaaaaaaaaaaaaaaaaaaaaaaaaaaaaaaaaaaaaa",
            "0x0000000000000000000000000000000000000000000000000000000000000002"
          ],
          "data": "0x",
          "blockHash": "0x457cfaa9bec273ea4f53d76a71a2f15db93bcc0b9f220afd9da17a573200b8a3",
          "blockNumber": "0x3370c38",
          "transactionHash": "0xc2add285e1268edac9ce9d3f0bb8e263e7812a385b7c001d41b7cf06eb1cbddf",
          "transactionIndex": "0x0",
          "logIndex": "0x0",
          "removed": false
        },
        {
          "address": "0xf4075a15a53bebe9cf402ad4b574e7e0affd483f",
          "topics": [
            "0xa4652c347eda285ec0c39ae9b126864ddd645ea09491cf0cccc0628a8affcc6a",
            "0x0000000000000000000000000000000000000000000000000000000000000002",
            "0x000000000000000000000000aaaaaaaaaaaaaaaaaaaaaaaaaaaaaaaaaaaaaaaa"
          ],
          "data": "0x0000000000000000000000000000000000000000000000000000000000000040000000000000000000000000000000000000000000000000000000000000000100000000000000000000000000000000000000000000000000000000000000084149204167656e74000000000000000000000000000000000000000000000000",
          "blockHash": "0x457cfaa9bec273ea4f53d76a71a2f15db93bcc0b9f220afd9da17a573200b8a3",
          "blockNumber": "0x3370c38",
          "transactionHash": "0xc2add285e1268edac9ce9d3f0bb8e263e7812a385b7c001d41b7cf06eb1cbddf",
          "transactionIndex": "0x0",
          "logIndex": "0x1",
          "removed": false
        },
        {
          "address": "0xa099a27051f91cf061ff9421635ceb269b7e1654",
          "topics": [
            "0x8ef37fd6ca236608119b9c2d1b5b261e8c11beffc328a40c6f95802355a9017c",
            "0x0000000000000000000000000000000000000000000000000000000000000002"
          ],
          "data": "0x0000000000000000000000000000000000000000000000000000000000000040000000000000000000000000000000000000000000000000000000000000008000000000000000000000000000000000000000000000000000000000000000084149204167656e74000000000000000000000000000000000000000000000000000000000000000000000000000000000000000000000000000000000000000f697066733a2f2f61692d6167656e740000000000000000000000000000000000",
          "blockHash": "0x457cfaa9bec273ea4f53d76a71a2f15db93bcc0b9f220afd9da17a573200b8a3",
          "blockNumber": "0x3370c38",
          "transactionHash": "0xc2add285e1268edac9ce9d3f0bb8e263e7812a385b7c001d41b7cf06eb1cbddf",
          "transactionIndex": "0x0",
          "logIndex": "0x2",
          "removed": false
        },
        {
          "address": "0x733c7d5fc45e60331156fc6188b9005e856704cb",
          "topics": [
            "0x42598236bbe4e4a30224435c009b25ce13c94d5507b5a7fd1cf549780aebde3b",
            "0x0000000000000000000000000000000000000000000000000000000000000002"
          ],
          "data": "0x",
          "blockHash": "0x457cfaa9bec273ea4f53d76a71a2f15db93bcc0b9f220afd9da17a573200b8a3",
          "blockNumber": "0x3370c38",
          "transactionHash": "0xc2add285e1268edac9ce9d3f0bb8e263e7812a385b7c001d41b7cf06eb1cbddf",
          "transactionIndex": "0x0",
          "logIndex": "0x3",
          "removed": false
        },
        {
          "address": "0x14b174a1a98f654da8f8ef3b20923a7b64adb384",
          "topics": [
            "0xba9d3be5149ecab5ff8e380633795e5d9153c2f0e1ec952dd1de4611d661c9f5",
            "0x0000000000000000000000000000000000000000000000000000000000000002",
            "0x000000000000000000000000aaaaaaaaaaaaaaaaaaaaaaaaaaaaaaaaaaaaaaaa"
          ],
          "data": "0x",
          "blockHash": "0x457cfaa9bec273ea4f53d76a71a2f15db93bcc0b9f220afd9da17a573200b8a3",
          "blockNumber": "0x3370c38",
          "transactionHash": "0xc2add285e1268edac9ce9d3f0bb8e263e7812a385b7c001d41b7cf06eb1cbddf",
          "transactionIndex": "0x0",
          "logIndex": "0x4",
          "removed": false
        }
      ],
      "logsBloom": "0x05000000000000000000000000000000000000000000000000000000000000001000000002000000000000000000001000000000000000000000000000000000000000000000000000000048000000000000000000000000000000000000800000100040020000000800000000000800000100000000400040000010000000400020020000000000000000000000000000020000000000000400000000000000001000000000000000000100200000000000000000000000000000000000000000002102000000000000000004000020000000000000000000000000000020000400400000000000000000000200000000000000008000000000000000000040",
      "type": "0x2",
      "transactionHash": "0xc2add285e1268edac9ce9d3f0bb8e263e7812a385b7c001d41b7cf06eb1cbddf",
      "transactionIndex": "0x0",
      "blockHash": "0x457cfaa9bec273ea4f53d76a71a2f15db93bcc0b9f220afd9da17a573200b8a3",
      "blockNumber": "0x3370c38",
      "gasUsed": "0x54316",
      "effectiveGasPrice": "0x2",
      "from": "0xfc10a013759f23142cca10a055ec0fa4a3ecd96a",
      "to": "0x14b174a1a98f654da8f8ef3b20923a7b64adb384",
      "contractAddress": null
    },
    {
      "status": "0x1",
      "cumulativeGasUsed": "0xa86a4",
      "logs": [
        {
          "address": "0xf4075a15a53bebe9cf402ad4b574e7e0affd483f",
          "topics": [
            "0xddf252ad1be2c89b69c2b068fc378daa952ba7f163c4a11628f55a4df523b3ef",
            "0x0000000000000000000000000000000000000000000000000000000000000000",
            "0x000000000000000000000000bbbbbbbbbbbbbbbbbbbbbbbbbbbbbbbbbbbbbbbb",
            "0x0000000000000000000000000000000000000000000000000000000000000003"
          ],
          "data": "0x",
          "blockHash": "0x457cfaa9bec273ea4f53d76a71a2f15db93bcc0b9f220afd9da17a573200b8a3",
          "blockNumber": "0x3370c38",
          "transactionHash": "0x1cfc9f5593ee117331b7f7b03890dc54d7c2c4a946212df43bf513f347b579c0",
          "transactionIndex": "0x1",
          "logIndex": "0x5",
          "removed": false
        },
        {
          "address": "0xf4075a15a53bebe9cf402ad4b574e7e0affd483f",
          "topics": [
            "0xa4652c347eda285ec0c39ae9b126864ddd645ea09491cf0cccc0628a8affcc6a",
            "0x0000000000000000000000000000000000000000000000000000000000000003",
            "0x000000000000000000000000bbbbbbbbbbbbbbbbbbbbbbbbbbbbbbbbbbbbbbbb"
          ],
          "data": "0x00000000000000000000000000000000000000000000000000000000000000400000000000000000000000000000000000000000000000000000000000000001000000000000000000000000000000000000000000000000000000000000000d4f6e6c696e6520506c6179657200000000000000000000000000000000000000",
          "blockHash": "0x457cfaa9bec273ea4f53d76a71a2f15db93bcc0b9f220afd9da17a573200b8a3",
          "blockNumber": "0x3370c38",
          "transactionHash": "0x1cfc9f5593ee117331b7f7b03890dc54d7c2c4a946212df43bf513f347b579c0",
          "transactionIndex": "0x1",
          "logIndex": "0x6",
          "removed": false
        },
        {
          "address": "0xa099a27051f91cf061ff9421635ceb269b7e1654",
          "topics": [
            "0x8ef37fd6ca236608119b9c2d1b5b261e8c11beffc328a40c6f95802355a9017c",
            "0x0000000000000000000000000000000000000000000000000000000000000003"
          ],
          "data": "0x00000000000000000000000000000000000000000000000000000000000000400000000000000000000000000000000000000000000000000000000000000080000000000000000000000000000000000000000000000000000000000000000d4f6e6c696e6520506c61796572000000000000000000000000000000000000000000000000000000000000000000000000000000000000000000000000000014697066733a2f2f6f6e6c696e652d706c61796572000000000000000000000000",
          "blockHash": "0x457cfaa9bec273ea4f53d76a71a2f15db93bcc0b9f220afd9da17a573200b8a3",
          "blockNumber": "0x3370c38",
          "transactionHash": "0x1cfc9f5593ee117331b7f7b03890dc54d7c2c4a946212df43bf513f347b579c0",
          "transactionIndex": "0x1",
          "logIndex": "0x7",
          "removed": false
        },
        {
          "address": "0x733c7d5fc45e60331156fc6188b9005e856704cb",
          "topics": [
            "0x42598236bbe4e4a30224435c009b25ce13c94d5507b5a7fd1cf549780aebde3b",
            "0x0000000000000000000000000000000000000000000000000000000000000003"
          ],
          "data": "0x",
          "blockHash": "0x457cfaa9bec273ea4f53d76a71a2f15db93bcc0b9f220afd9da17a573200b8a3",
          "blockNumber": "0x3370c38",
          "transactionHash": "0x1cfc9f5593ee117331b7f7b03890dc54d7c2c4a946212df43bf513f347b579c0",
          "transactionIndex": "0x1",
          "logIndex": "0x8",
          "removed": false
        },
        {
          "address": "0x14b174a1a98f654da8f8ef3b20923a7b64adb384",
          "topics": [
            "0xba9d3be5149ecab5ff8e380633795e5d9153c2f0e1ec952dd1de4611d661c9f5",
            "0x0000000000000000000000000000000000000000000000000000000000000003",
            "0x000000000000000000000000bbbbbbbbbbbbbbbbbbbbbbbbbbbbbbbbbbbbbbbb"
          ],
          "data": "0x",
          "blockHash": "0x457cfaa9bec273ea4f53d76a71a2f15db93bcc0b9f220afd9da17a573200b8a3",
          "blockNumber": "0x3370c38",
          "transactionHash": "0x1cfc9f5593ee117331b7f7b03890dc54d7c2c4a946212df43bf513f347b579c0",
          "transactionIndex": "0x1",
          "logIndex": "0x9",
          "removed": false
        }
      ],
      "logsBloom": "0x01000000000000000000000000000000000000000000000000000000000000001000000002000000000000000000001000000000020000000000000000000000000000000000000000000048000000000000000000000000000000000000800000900000020000000800000000000800000100000000400000000010000000400020020000000000000000000000000000020000000000000400000000000000001000000000000000400000200000000040000000800000000000000000400000002102000000000000000004000020000000000000000000000000000020000400400000000000000000000000000000000000000000000000000000000040",
      "type": "0x2",
      "transactionHash": "0x1cfc9f5593ee117331b7f7b03890dc54d7c2c4a946212df43bf513f347b579c0",
      "transactionIndex": "0x1",
      "blockHash": "0x457cfaa9bec273ea4f53d76a71a2f15db93bcc0b9f220afd9da17a573200b8a3",
      "blockNumber": "0x3370c38",
      "gasUsed": "0x5438e",
      "effectiveGasPrice": "0x2",
      "from": "0xfc10a013759f23142cca10a055ec0fa4a3ecd96a",
      "to": "0x14b174a1a98f654da8f8ef3b20923a7b64adb384",
      "contractAddress": null
    }
  ],
  "libraries": [],
  "pending": [],
  "returns": {},
  "timestamp": 1775876111761,
  "chain": 43113,
  "commit": "75c5329c"
}