{
  "transactions": [
    {
      "hash": "0x179cfebbc20615cc8c2adeb420e447e99fdeb33557e5e287dbb00806c294712b",
      "transactionType": "CALL",
      "contractName": null,
      "contractAddress": "0x5924af67ac10c9c1b62c5d6c953b1d1322f27972",
      "function": "registerAgent(address,string,string)",
      "arguments": [
        "0xaAaAaAaaAaAaAaaAaAAAAAAAAaaaAaAaAaaAaaAa",
        "AI Agent",
        "ipfs://ai-agent"
      ],
      "transaction": {
        "from": "0xfc10a013759f23142cca10a055ec0fa4a3ecd96a",
        "to": "0x5924af67ac10c9c1b62c5d6c953b1d1322f27972",
        "gas": "0x75229",
        "value": "0x0",
        "input": "0x7216fe48000000000000000000000000aaaaaaaaaaaaaaaaaaaaaaaaaaaaaaaaaaaaaaaa000000000000000000000000000000000000000000000000000000000000006000000000000000000000000000000000000000000000000000000000000000a000000000000000000000000000000000000000000000000000000000000000084149204167656e74000000000000000000000000000000000000000000000000000000000000000000000000000000000000000000000000000000000000000f697066733a2f2f61692d6167656e740000000000000000000000000000000000",
        "nonce": "0x46",
        "chainId": "0xa869"
      },
      "additionalContracts": [],
      "isFixedGasLimit": false
    },
    {
      "hash": "0xc27acbbf63b3a914c020919bbdf9969dd62331a766470bd7f12df73f090de6bd",
      "transactionType": "CALL",
      "contractName": null,
      "contractAddress": "0x5924af67ac10c9c1b62c5d6c953b1d1322f27972",
      "function": "registerAgent(address,string,string)",
      "arguments": [
        "0xbBbBBBBbbBBBbbbBbbBbbbbBBbBbbbbBbBbbBBbB",
        "Online Player",
        "ipfs://online-player"
      ],
      "transaction": {
        "from": "0xfc10a013759f23142cca10a055ec0fa4a3ecd96a",
        "to": "0x5924af67ac10c9c1b62c5d6c953b1d1322f27972",
        "gas": "0x752d0",
        "value": "0x0",
        "input": "0x7216fe48000000000000000000000000bbbbbbbbbbbbbbbbbbbbbbbbbbbbbbbbbbbbbbbb000000000000000000000000000000000000000000000000000000000000006000000000000000000000000000000000000000000000000000000000000000a0000000000000000000000000000000000000000000000000000000000000000d4f6e6c696e6520506c61796572000000000000000000000000000000000000000000000000000000000000000000000000000000000000000000000000000014697066733a2f2f6f6e6c696e652d706c61796572000000000000000000000000",
        "nonce": "0x47",
        "chainId": "0xa869"
      },
      "additionalContracts": [],
      "isFixedGasLimit": false
    }
  ],
  "receipts": [
    {
      "status": "0x1",
      "cumulativeGasUsed": "0x54cdd",
      "logs": [
        {
          "address": "0x43250c1a36284a99d172c427025d80a0a2ccfa39",
          "topics": [
            "0xddf252ad1be2c89b69c2b068fc378daa952ba7f163c4a11628f55a4df523b3ef",
            "0x0000000000000000000000000000000000000000000000000000000000000000",
            "0x000000000000000000000000aaaaaaaaaaaaaaaaaaaaaaaaaaaaaaaaaaaaaaaa",
            "0x0000000000000000000000000000000000000000000000000000000000000002"
          ],
          "data": "0x",
          "blockHash": "0xdb97602de77927c1db6a8db2ca035c2159cba2917f2071e35a3ff80ba207fdf8",
          "blockNumber": "0x3367993",
          "transactionHash": "0x179cfebbc20615cc8c2adeb420e447e99fdeb33557e5e287dbb00806c294712b",
          "transactionIndex": "0x0",
          "logIndex": "0x0",
          "removed": false
        },
        {
          "address": "0x43250c1a36284a99d172c427025d80a0a2ccfa39",
          "topics": [
            "0xa4652c347eda285ec0c39ae9b126864ddd645ea09491cf0cccc0628a8affcc6a",
            "0x0000000000000000000000000000000000000000000000000000000000000002",
            "0x000000000000000000000000aaaaaaaaaaaaaaaaaaaaaaaaaaaaaaaaaaaaaaaa"
          ],
          "data": "0x0000000000000000000000000000000000000000000000000000000000000040000000000000000000000000000000000000000000000000000000000000000100000000000000000000000000000000000000000000000000000000000000084149204167656e74000000000000000000000000000000000000000000000000",
          "blockHash": "0xdb97602de77927c1db6a8db2ca035c2159cba2917f2071e35a3ff80ba207fdf8",
          "blockNumber": "0x3367993",
          "transactionHash": "0x179cfebbc20615cc8c2adeb420e447e99fdeb33557e5e287dbb00806c294712b",
          "transactionIndex": "0x0",
          "logIndex": "0x1",
          "removed": false
        },
        {
          "address": "0x3d31b774127deb23cb35c6640c54d0b65d22b8f1",
          "topics": [
            "0x8ef37fd6ca236608119b9c2d1b5b261e8c11beffc328a40c6f95802355a9017c",
            "0x0000000000000000000000000000000000000000000000000000000000000002"
          ],
          "data": "0x0000000000000000000000000000000000000000000000000000000000000040000000000000000000000000000000000000000000000000000000000000008000000000000000000000000000000000000000000000000000000000000000084149204167656e74000000000000000000000000000000000000000000000000000000000000000000000000000000000000000000000000000000000000000f697066733a2f2f61692d6167656e740000000000000000000000000000000000",
          "blockHash": "0xdb97602de77927c1db6a8db2ca035c2159cba2917f2071e35a3ff80ba207fdf8",
          "blockNumber": "0x3367993",
          "transactionHash": "0x179cfebbc20615cc8c2adeb420e447e99fdeb33557e5e287dbb00806c294712b",
          "transactionIndex": "0x0",
          "logIndex": "0x2",
          "removed": false
        },
        {
          "address": "0x687566b80b0e660af0f1d322d4250be31bf3a300",
          "topics": [
            "0x42598236bbe4e4a30224435c009b25ce13c94d5507b5a7fd1cf549780aebde3b",
            "0x0000000000000000000000000000000000000000000000000000000000000002"
          ],
          "data": "0x",
          "blockHash": "0xdb97602de77927c1db6a8db2ca035c2159cba2917f2071e35a3ff80ba207fdf8",
          "blockNumber": "0x3367993",
          "transactionHash": "0x179cfebbc20615cc8c2adeb420e447e99fdeb33557e5e287dbb00806c294712b",
          "transactionIndex": "0x0",
          "logIndex": "0x3",
          "removed": false
        },
        {
          "address": "0x5924af67ac10c9c1b62c5d6c953b1d1322f27972",
          "topics": [
            "0xba9d3be5149ecab5ff8e380633795e5d9153c2f0e1ec952dd1de4611d661c9f5",
            "0x0000000000000000000000000000000000000000000000000000000000000002",
            "0x000000000000000000000000aaaaaaaaaaaaaaaaaaaaaaaaaaaaaaaaaaaaaaaa"
          ],
          "data": "0x",
          "blockHash": "0xdb97602de77927c1db6a8db2ca035c2159cba2917f2071e35a3ff80ba207fdf8",
          "blockNumber": "0x3367993",
          "transactionHash": "0x179cfebbc20615cc8c2adeb420e447e99fdeb33557e5e287dbb00806c294712b",
          "transactionIndex": "0x0",
          "logIndex": "0x4",
          "removed": false
        }
      ],
      "logsBloom": "0x05040000000000000020000000000000000000000000004000000000000000001000000002000000000000000000000000000000000800000000000000000000000000000000000800000048000000000000000000000000000000000000000000000040020000000000008000400800004100000000000040000010000000000020020000000000000000000000000000020000000000000400000000000000001000000000000000000100000000000000000000000000000000000000000100000102000000000000000100000000000000000000000000000000002020000000400000000000000000000200000000000000008000000000100000000000",
      "type": "0x2",
      "transactionHash": "0x179cfebbc20615cc8c2adeb420e447e99fdeb33557e5e287dbb00806c294712b",
      "transactionIndex": "0x0",
      "blockHash": "0xdb97602de77927c1db6a8db2ca035c2159cba2917f2071e35a3ff80ba207fdf8",
      "blockNumber": "0x3367993",
      "gasUsed": "0x54cdd",
      "effectiveGasPrice": "0x2",
      "from": "0xfc10a013759f23142cca10a055ec0fa4a3ecd96a",
      "to": "0x5924af67ac10c9c1b62c5d6c953b1d1322f27972",
      "contractAddress": null
    },
    {
      "status": "0x1",
      "cumulativeGasUsed": "0xa9a32",
      "logs": [
        {
          "address": "0x43250c1a36284a99d172c427025d80a0a2ccfa39",
          "topics": [
            "0xddf252ad1be2c89b69c2b068fc378daa952ba7f163c4a11628f55a4df523b3ef",
            "0x0000000000000000000000000000000000000000000000000000000000000000",
            "0x000000000000000000000000bbbbbbbbbbbbbbbbbbbbbbbbbbbbbbbbbbbbbbbb",
            "0x0000000000000000000000000000000000000000000000000000000000000003"
          ],
          "data": "0x",
          "blockHash": "0xdb97602de77927c1db6a8db2ca035c2159cba2917f2071e35a3ff80ba207fdf8",
          "blockNumber": "0x3367993",
          "transactionHash": "0xc27acbbf63b3a914c020919bbdf9969dd62331a766470bd7f12df73f090de6bd",
          "transactionIndex": "0x1",
          "logIndex": "0x5",
          "removed": false
        },
        {
          "address": "0x43250c1a36284a99d172c427025d80a0a2ccfa39",
          "topics": [
            "0xa4652c347eda285ec0c39ae9b126864ddd645ea09491cf0cccc0628a8affcc6a",
            "0x0000000000000000000000000000000000000000000000000000000000000003",
            "0x000000000000000000000000bbbbbbbbbbbbbbbbbbbbbbbbbbbbbbbbbbbbbbbb"
          ],
          "data": "0x00000000000000000000000000000000000000000000000000000000000000400000000000000000000000000000000000000000000000000000000000000001000000000000000000000000000000000000000000000000000000000000000d4f6e6c696e6520506c6179657200000000000000000000000000000000000000",
          "blockHash": "0xdb97602de77927c1db6a8db2ca035c2159cba2917f2071e35a3ff80ba207fdf8",
          "blockNumber": "0x3367993",
          "transactionHash": "0xc27acbbf63b3a914c020919bbdf9969dd62331a766470bd7f12df73f090de6bd",
          "transactionIndex": "0x1",
          "logIndex": "0x6",
          "removed": false
        },
        {
          "address": "0x3d31b774127deb23cb35c6640c54d0b65d22b8f1",
          "topics": [
            "0x8ef37fd6ca236608119b9c2d1b5b261e8c11beffc328a40c6f95802355a9017c",
            "0x0000000000000000000000000000000000000000000000000000000000000003"
          ],
          "data": "0x00000000000000000000000000000000000000000000000000000000000000400000000000000000000000000000000000000000000000000000000000000080000000000000000000000000000000000000000000000000000000000000000d4f6e6c696e6520506c61796572000000000000000000000000000000000000000000000000000000000000000000000000000000000000000000000000000014697066733a2f2f6f6e6c696e652d706c61796572000000000000000000000000",
          "blockHash": "0xdb97602de77927c1db6a8db2ca035c2159cba2917f2071e35a3ff80ba207fdf8",
          "blockNumber": "0x3367993",
          "transactionHash": "0xc27acbbf63b3a914c020919bbdf9969dd62331a766470bd7f12df73f090de6bd",
          "transactionIndex": "0x1",
          "logIndex": "0x7",
          "removed": false
        },
        {
          "address": "0x687566b80b0e660af0f1d322d4250be31bf3a300",
          "topics": [
            "0x42598236bbe4e4a30224435c009b25ce13c94d5507b5a7fd1cf549780aebde3b",
            "0x0000000000000000000000000000000000000000000000000000000000000003"
          ],
          "data": "0x",
          "blockHash": "0xdb97602de77927c1db6a8db2ca035c2159cba2917f2071e35a3ff80ba207fdf8",
          "blockNumber": "0x3367993",
          "transactionHash": "0xc27acbbf63b3a914c020919bbdf9969dd62331a766470bd7f12df73f090de6bd",
          "transactionIndex": "0x1",
          "logIndex": "0x8",
          "removed": false
        },
        {
          "address": "0x5924af67ac10c9c1b62c5d6c953b1d1322f27972",
          "topics": [
            "0xba9d3be5149ecab5ff8e380633795e5d9153c2f0e1ec952dd1de4611d661c9f5",
            "0x0000000000000000000000000000000000000000000000000000000000000003",
            "0x000000000000000000000000bbbbbbbbbbbbbbbbbbbbbbbbbbbbbbbbbbbbbbbb"
          ],
          "data": "0x",
          "blockHash": "0xdb97602de77927c1db6a8db2ca035c2159cba2917f2071e35a3ff80ba207fdf8",
          "blockNumber": "0x3367993",
          "transactionHash": "0xc27acbbf63b3a914c020919bbdf9969dd62331a766470bd7f12df73f090de6bd",
          "transactionIndex": "0x1",
          "logIndex": "0x9",
          "removed": false
        }
      ],
      "logsBloom": "0x01040000000000000020000000000000000000000000004000000000000000001000000002000000000000000000000000000000020800000000000000000000000000000000000800000048000000000000000000000000000000000000000000800000020000000000008000400800004100000000000000000010000000000020020000000000000000000000000000020000000000000400000000000000001000000000000000400000000000000040000000800000000000000000400100000102000000000000000100000000000000000000000000000000002020000000400000000000000000000000000000000000000000000000100000000000",
      "type": "0x2",
      "transactionHash": "0xc27acbbf63b3a914c020919bbdf9969dd62331a766470bd7f12df73f090de6bd",
      "transactionIndex": "0x1",
      "blockHash": "0xdb97602de77927c1db6a8db2ca035c2159cba2917f2071e35a3ff80ba207fdf8",
      "blockNumber": "0x3367993",
      "gasUsed": "0x54d55",
      "effectiveGasPrice": "0x2",
      "from": "0xfc10a013759f23142cca10a055ec0fa4a3ecd96a",
      "to": "0x5924af67ac10c9c1b62c5d6c953b1d1322f27972",
      "contractAddress": null
    }
  ],
  "libraries": [],
  "pending": [],
  "returns": {},
  "timestamp": 1775816415525,
  "chain": 43113,
  "commit": "75c5329c"
}